:100000000C9456020C9473020C9473020C947302B9
:100010000C9473020C9473020C9473020C9473028C
:100020000C9473020C9473020C9473020C9473027C
:100030000C9473020C9473020C94EA070C947302F0
:100040000C9473020C9441080C9451060C941A06FB
:100050000C9473020C9473020C9473020C9473024C
:100060000C9473020C9473026E616E00696E6600EC
:10007000D300D800E300ED000A00493A25312E33C1
:10008000662020004572723A25312E33662020000A
:100090005374644465763A25312E3366202000502F
:1000A000574D3A25312E336620200054656D703A45
:1000B00025312E33662020000A4465766963652069
:1000C000496E697469616C697A65642025312E30E6
:1000D000660A0020204F4B00202053687574646F1F
:1000E000776E00202048656174696E670020205299
:1000F0004547554C4154454400486561746572203C
:1001000054696D656F7574204572726F7220536803
:100110007574646F776E0A0048656174657220417A
:100120006D6269656E74204572726F7220536875D6
:1001300074646F776E0A0048656174657220536558
:100140006E736F72204572726F722053687574649B
:100150006F776E0A00737973006662000000000713
:100160000C0E260E6006C3F5E040737973006676C8
:1001700000000000070C0E260E6406CDCCCC3D73AB
:10018000797300687600000000070C0E260E6806E2
:10019000CDCCCC3D6831000068317374000000891B
:1001A0000DA80D6003000000006831000068317484
:1001B0006D7000000C0E260E6603000089C36831C6
:1001C0000000683173657400000C0E260E6A03008F
:1001D0000020416831000068316879730000890DA2
:1001E000A80D630300002041683100006831616D93
:1001F0006200000C0E260E7E0300002042683100D3
:100200000068316F767200000C0E260E820300002B
:10021000964368310000683161746F00000C0E264F
:100220000E76030000B442683100006831726567E1
:1002300000000C0E260E6E030000404068310000E6
:10024000683172746F00000C0E260E7A030000965F
:10025000436831000068316261640000890DA80DB7
:1002600064030000A0407331000073317374000018
:1002700000890DA80DB00300000000733100007369
:1002800031746D7000000C0E260EB403000089C39B
:1002900073310000733173766D00000C0E260EBCB6
:1002A00003CDCC8C3F73310000733172766D00004A
:1002B0000C0E260EC0030000A0417031000070310A
:1002C0006B700000000C0E260EA4030000A040700E
:1002D00031000070316B690000000C0E260EA8037F
:1002E000CDCCCC3D7031000070316B640000000C4F
:1002F0000E260EAC030000003F7031000070317319
:100300006D7800000C0E260E8C030000C842703180
:1003100000007031736D6E00000C0E260E9003000D
:1003200000000000000000737973000000004D1110
:100330009B11D402000000000000000068310000A2
:100340000000004D119B11D40200000000000000CD
:1003500000733100000000004D119B11D402000019
:10036000000000000000703100000000004D119BF3
:1003700011D40200000000494E46494E4954594EDE
:10038000414ECDCCCC3D0AD7233C17B7D13877CCE2
:100390002B329595E6241FB14F0A00002041000042
:1003A000C84200401C4620BCBE4CCA1B0E5AAEC5FB
:1003B0009D7400407A10F35A00A0724E1809001084
:1003C000A5D4E80000E87648170000E40B540200CA
:1003D00000CA9A3B000000E1F505000080969800F5
:1003E000000040420F000000A0860100000010271E
:1003F00000000000E80300000000640000000000AE
:100400000A00000000000100000000002C76D888DF
:10041000DC674F0823DFC1DFAE59E1B1B796E5E3F2
:10042000E453C63AE651997696E8E6C28426EB890B
:100430008C9B62ED407C6FFCEFBC9C9F40F2BAA5A8
:100440006FA5F490055A2AF75C936B6CF9676DC140
:100450001BFCE0E40D47FEF520E6B500D0ED902E44
:100460000300943577050080841E080000204E0AA2
:10047000000000C80C333333330F986E12831141E0
:10048000EF8D2114893BE65516CFFEE6DB18D184AB
:100490004B381BF77C1D901DA4BBE42420328472D2
:1004A0005E228100C9F124ECA1E53D2711241FBE85
:1004B000CFEFD8E0DEBFCDBF12E0A0E0B1E0EAE9C7
:1004C000F1E402C005900D92A43AB107D9F716E005
:1004D000A4EAB2E001C01D92A238B107E1F70E9480
:1004E000B1030C94CB200C9400008E3249F08D3275
:1004F00039F08B3229F020E090E0C0970A9708F499
:1005000021E0822F08952F923F924F925F926F9237
:100510007F928F929F92AF92BF92CF92DF92EF9293
:10052000FF920F931F93DF93CF9300D000D0CDB7EE
:10053000DEB7D62E5A834983662329F460E070E043
:1005400080E090E057C09C838B83AA240F2EF0E0BC
:100550006F2EF0E07F2EF0E08F2EF0E09F2EF02D3A
:10056000130124011DC0EB81FC81E190F190019108
:100570001191FC83EB83C401B301A80197010E9490
:100580006D193B014C01C801B7010E94C41B9B01BE
:10059000AC01C201B1010E946D191B012C01A39491
:1005A000AD1408F36D2D70E0882777FD8095982FA6
:1005B0000E946B1A5B016C01C401B301A601950195
:1005C0000E94D5199B01AC01E981FA812083318316
:1005D000428353830E94C41B7B018C01C201B10181
:1005E000A60195010E94D519A80197010E946C19D6
:1005F0000E94861B0F900F900F900F90CF91DF916C
:100600001F910F91FF90EF90DF90CF90BF90AF9030
:100610009F908F907F906F905F904F903F902F9022
:100620000895089500D000D000D08BEA90E0EDB797
:10063000FEB7928381838091B4039091B503A0911A
:10064000B603B091B70383839483A583B6830E94D6
:10065000BA1F8FE990E0EDB7FEB792838183809156
:10066000880390918903A0918A03B0918B038383BF
:100670009483A583B6830E94BA1F80E990E0EDB70A
:10068000FEB7928381838091B8039091B903A091C2
:10069000BA03B091BB0383839483A583B6830E947E
:1006A000BA1F84E890E0EDB7FEB792838183809112
:1006B000940390919503A0919603B091970383833F
:1006C0009483A583B6830E94BA1F8AE790E0EDB7B2
:1006D000FEB79283818380919C0390919D03A091AA
:1006E0009E03B0919F0383839483A583B6830E9466
:1006F000BA1F80916003E82FF0E0EE0FFF1FE05972
:10070000FF4F859194910F900F900F900F90EDB740
:10071000FEB7928381830E94BA1F88E790E0EDB70D
:10072000FEB7928381830E94BA1F0F900F900895A5
:1007300000D000D088EB90E0EDB7FEB792838183C4
:100740008AE290E0948383830E94BA1F0F900F90F7
:100750000F900F90089580E060E071E00E942A05FC
:100760000895F8940E94B5060E947B050E9411032B
:100770000E94C21178940E94980380E060E071E0CA
:100780000E942A050E940F088230E1F38091D8026E
:100790006FED72E040E850E00E94E50380935F0354
:1007A000882381F78FED92E00E942215EBCFE82F8E
:1007B000F0E0EE0FFF1FE05EFB4F0190F081E02DB7
:1007C0000180F281E02D09950895E82FF0E0EE0F09
:1007D000FF1FE05EFB4F0190F081E02D2581368107
:1007E000CF01F90109950895E82FF0E0EE0FFF1F02
:1007F000E05EFB4F0190F081E02D27813085CF0135
:100800004396F90109950895E82FF0E0EE0FFF1FD8
:10081000E05EFB4F0190F081E02D21853285862F2F
:100820007396BF01F90109950895E82FF0E0EE0FE6
:10083000FF1FE05EFB4F80819181439690937B0682
:1008400080937A060895E82FF0E0EE0FFF1FE05E38
:10085000FB4F80819181439690937D0680937C0627
:100860000895E82FF0E0EE0FFF1FE05EFB4F808160
:100870009181439690937F0680937E060895089514
:10088000FC0160FF02C081E081A361FD11A264FF51
:1008900002C081E082A365FD12A274FF02C081E064
:1008A00083A375FD13A280E090E00895CF93DF93BA
:1008B000EC01ED85FE85309729F081E08283ED859E
:1008C000FE858183EF85F889309729F081E0828366
:1008D000EF85F88981831CA21DA21EA2CE010E9471
:1008E000400489859A859C8F8B8F8F8198859E8FF8
:1008F0008D8F83E08E8BD8A3CF8FDF91CF9108951A
:10090000E82FF0E0EE0FFF1FE05EFB4F808191814A
:100910000E9440040895282FFB010484F585E02DF2
:10092000A785B08912969C911297915009F49C91D9
:1009300011968C911197981711F42FEF07C0FD01B4
:10094000E90FF11D238312969C9320E0332727FDA6
:100950003095C9010895FC0192818181981711F4A5
:100960008FEF08958181815081838181882311F4E3
:10097000808181838181E80FF11D83810895CF9368
:10098000DF93EC018CA1882339F481E08CA37BA751
:100990006AA719A658A74FA34FA158A589A590E00B
:1009A0009A01215030408217930744F0EAA5FBA535
:1009B000E40FF51F10822DE030E023C08D859E8569
:1009C0000E94AB04282F332727FD30958FEF2F3F50
:1009D0003807A9F099A5EAA5FBA52A30310549F405
:1009E000E90FF11D10829F5F99A71CA220E030E063
:1009F00008C0E90FF11D20839F5F99A7CDCF22E0AA
:100A000030E0C901DF91CF910895DC011C96ED9192
:100A1000FC911D97858596850E94AB04282F33276E
:100A200027FD3095C9010895DC0112969C9112971B
:100A3000915009F49C9111968C911197981711F48B
:100A40008FEF0895FD01E90FF11D638312969C93CA
:100A500080E00895CF93DF9320E0C82FD0E0CC0F43
:100A6000DD1FC05EDB4F16C0E881F981A585B68524
:100A700012969C911297915009F49C9111968C9129
:100A80001197981731F0FD01E90FF11D338312968C
:100A90009C932F5FFB01E20FF11D3081332321F77F
:100AA000DF91CF9108950F931F93CF93DF930DE1C3
:100AB00016E0CBE0D1E0E0912204F09123042581FF
:100AC0003681CF016DE176E040E450E0F90109950F
:100AD00080935F06882379F700D000D0EDB7FEB78A
:100AE000D283C183148303830E94A51F0F900F90AC
:100AF0000F900F90E0CF80E00E94CB0590932104EF
:100B00008093200481E00E943C089093230480930A
:100B10002204E0912004F09121040180F281E02D73
:100B200080E060E070E045E150E10995E091220449
:100B3000F09123040180F281E02D81E060E070E01B
:100B400040E050E109958091200490912104439662
:100B500090937B0680937A0690937D0680937C0623
:100B60008091220490912304439690937F06809372
:100B70007E060895462FE82FF0E0EE0FFF1FE05E9F
:100B8000FB4F50E060E070E0808191810E94D005D1
:100B900080E090E0089580935C018CE591E00895F9
:100BA0009A01AB0183E0220F331F441F551F8A9522
:100BB000D1F760E074E284EF90E00E94DC1B2150EA
:100BC00030403093C5002093C400E0ECF0E0808119
:100BD0008D7F808308950F931F93CF93DF93FC0144
:100BE000C485D5858D859E850E94AB04082F11276D
:100BF00007FD1095EB85FC85CE0109958AA1882318
:100C000041F060917C0670917D06E985FA85802F20
:100C100009950D30110519F00A30110529F48BA141
:100C2000882311F00AE010E0C801DF91CF911F91F5
:100C30000F9108951F920F920FB60F9211242F93C8
:100C40003F934F935F936F937F938F939F93AF9354
:100C5000BF93EF93FF9380916B0190916C010E9481
:100C6000AB04992787FD90952FEF8F3F920731F4C2
:100C70008091C1008F7D8093C10002C08093C60027
:100C8000FF91EF91BF91AF919F918F917F916F9164
:100C90005F914F913F912F910F900FBE0F901F903A
:100CA00018951F920F920FB60F9211242F933F9316
:100CB0004F935F936F937F938F939F93AF93BF9364
:100CC000EF93FF936091C6008091690190916A0152
:100CD0000E941405FF91EF91BF91AF919F918F9169
:100CE0007F916F915F914F913F912F910F900FBE28
:100CF0000F901F901895282FFB010484F585E02D97
:100D000087859089622F0E941405E1ECF0E09081C4
:100D100090629083282F332727FD3095C9010895CD
:100D20000F931F93E82FF0E0EE0FFF1FE05EFB4FE5
:100D300000811181C801BA010E945604E4E6F0E086
:100D400080818D7F80831092C00088E98093C100EC
:100D5000C80140E052EC61E070E00E94D0050D5EF9
:100D60001F4FC8011F910F9108958FEF809364006A
:100D700014B817B81AB80895E4E6F0E090819E7FA1
:100D80009083982F9064ECE7F0E0908396E890933E
:100D90007A009081907F90839081908321E030E071
:100DA00002C0220F331F8A95E2F720937E00089538
:100DB00080917A00806480937A0080917A0080919B
:100DC0007A00806180937A00809178009091790018
:100DD000892B71F32091780030917900C901089531
:100DE000539AE4E6F0E080818F7B8083E0EBF0E0D3
:100DF00080EF8083808183608083E1EBF0E088E096
:100E0000808380818460808310926F001092B30091
:100E10001092B40080E090E0A0E0B0E080937B040A
:100E200090937C04A0937D04B0937E040895EF9288
:100E3000FF920F931F939B01AC0160E074E284E783
:100E400098E40E94D5197B018C0160937B04709318
:100E50007C0480937D0490937E0420E030E040EA9F
:100E600051E40E94D119882314F484E10BC0C80115
:100E7000B70120E030E04FE753E40E941B1B8823BA
:100E800024F08FEF8093B30006C0C801B7010E9421
:100E90003D1A6093B30080E01F910F91FF90EF9097
:100EA0000895AF92BF92CF92DF92EF92FF920F938D
:100EB0001F935B016C012AE037ED43E25CE30E9483
:100EC000D119882324F48FEF8093B40030C0C60179
:100ED000B5012DEC3CEC47EC52E40E941B1B1816AC
:100EE0001CF41092B40023C06091B30070E0882716
:100EF00077FD8095982F0E946B1A7B018C01C601AB
:100F0000B50120E030E048EC52EC0E94D51920E019
:100F100030E040E85FE30E946D199B01AC01C8011D
:100F2000B7010E941F1B0E943D1A6093B40060919C
:100F30007B0470917C0480917D0490917E040E94DA
:100F40003D1A6093B30080E01F910F91FF90EF90E6
:100F5000DF90CF90BF90AF900895AF92BF92CF92A5
:100F6000DF92EF92FF920F931F937B018C01590147
:100F70006A010E94F006C801B7010E941707C60166
:100F8000B5010E9451071F910F91FF90EF90DF90E4
:100F9000CF90BF90AF90089560E070E080E090E067
:100FA0009B01AC010E94AD070895E4E6F0E080816A
:100FB0008F7D808392E094BD83E085BD8DE787BD02
:100FC00090936E008AE080937804809379048093F4
:100FD0007A0408951F920F920FB60F9211248F93E7
:100FE00081E0809377048F910F900FBE0F901F9038
:100FF000189508950895539A5A9A08955A980895FD
:101000005A9A08958BB1882311F05A9808955A9AE4
:1010100008950E941D0A08950E941C0C08951F93B4
:1010200080917704882311F483E024C01092770420
:101030000E941C0C8091780481508093780488234E
:10104000C1F41AE010937804809179048150809360
:101050007904882371F4109379040E941D0A809109
:101060007A04815080937A04882319F410937A04C7
:1010700001C080E01F91089580930E028EE092E0FF
:1010800008951F920F920FB60F9211241F932F9362
:101090003F934F935F936F937F938F939F93AF9300
:1010A000BF93EF93FF931EB580911D0290911E0296
:1010B0000E94AB04992787FD90952FEF8F3F9207F1
:1010C00009F483E08EBD80911B0290911C02612F78
:1010D0000E941405FF91EF91BF91AF919F918F9165
:1010E0007F916F915F914F913F912F911F910F9041
:1010F0000FBE0F901F9018950F931F93E82FF0E0ED
:10110000EE0FFF1FE05EFB4F00811181C801BA01A5
:101110000E945604E4E6F0E080818B7F80838CB5EA
:101120008C6C8CBD249A0D5E1F4FC8011F910F91CE
:10113000089520E030E040E050E0209388033093B1
:10114000890340938A0350938B0380E090E0A8E4E6
:10115000B3E480939C0390939D03A0939E03B0936C
:101160009F03209398033093990340939A035093DD
:101170009B0308956F927F928F929F92AF92BF923E
:10118000CF92DF92EF92FF920F931F937B018C011E
:1011900080918603882349F47091900360919103B4
:1011A0009091920380919303DDC0C801B7010E9422
:1011B0006C193B014C0160939403709395038093E9
:1011C0009603909397039F772DEC3CEC4CEC5DE3FA
:1011D0000E941B1B181684F5609188037091890387
:1011E00080918A0390918B0320918C0330918D0321
:1011F00040918E0350918F030E94D1198823E4F40B
:10120000C401B3012DEC3CEC4CEC5DE30E941F1BD0
:101210009B01AC0160919C0370919D0380919E03A2
:1012200090919F030E946D1960939C0370939D039E
:1012300080939E0390939F03C401B3012091980370
:101240003091990340919A0350919B030E946C192D
:101250002DEC3CEC4CEC5DE30E94D5195B016C017C
:101260006093A0037093A1038093A2039093A303C0
:10127000C401B3012091A4033091A5034091A603BA
:101280005091A7030E941F1B7B018C016091A80352
:101290007091A9038091AA039091AB0320919C03C4
:1012A00030919D0340919E0350919F030E941F1B0C
:1012B0009B01AC01C801B7010E946D197B018C0133
:1012C000C601B5012091AC033091AD034091AE034E
:1012D0005091AF030E941F1B9B01AC01C801B701D5
:1012E0000E946D197B018C016093880370938903C0
:1012F00080938A0390938B03A0908C03B0908D030E
:10130000C0908E03D0908F03A60195010E941B1BF5
:10131000181684F0A0909003B0909103C0909203AF
:10132000D0909303C801B701A60195010E94D1197D
:10133000882344F4A0928803B0928903C0928A0360
:10134000D0928B03609298037092990380929A03D3
:1013500090929B03709188036091890390918A0316
:1013600080918B03272F362F492F582FB901CA019F
:101370001F910F91FF90EF90DF90CF90BF90AF90B3
:101380009F908F907F906F9008958AE2E6E8F3E057
:10139000DF011D928A95E9F780E090E0A0EAB0E4D1
:1013A0008093A4039093A503A093A603B093A703EF
:1013B0008DEC9CECACECBDE38093A8039093A90367
:1013C000A093AA03B093AB0380E090E0A0E0BFE35A
:1013D0008093AC039093AD03A093AE03B093AF039F
:1013E00080E090E0A8ECB2E480938C0390938D03AE
:1013F000A0938E03B0938F0380E090E0A0E0B0E074
:101400008093900390939103A0939203B0939303DE
:1014100081E08093860308950F931F93182F062F62
:101420000E94CC070E94F50B1093600300936103A8
:101430000E9400081F910F910895AF92BF92CF9222
:10144000DF92EF92FF920F931F938091600382309F
:1014500008F413C10E9412030E94040C60936603F7
:1014600070936703809368039093690320918203CC
:101470003091830340918403509185030E941B1B8C
:1014800018162CF481E063E00E940C0AF6C00E945A
:10149000F80BE0906603F0906703009168031091E9
:1014A0006903C801B70123E333E948E853EC0E941C
:1014B000D119882394F4809165038F5F809365032D
:1014C00090916403981708F0D8C081E064E00E940E
:1014D0000C0A00D087E391E058C010926503609138
:1014E0006A0370916B0380916C0390916D03A80166
:1014F00097010E94BA080E945107809160038230D0
:1015000009F070C06091720370917303809174034D
:10151000909175032DEC3CEC4CEC5DE30E946D1951
:101520007B018C0160937203709373038093740347
:1015300090937503A0906603B0906703C090680312
:10154000D0906903C601B50120917E0330917F03DD
:1015500040918003509181030E94D1198823F4F4B3
:10156000C801B70120917603309177034091780349
:10157000509179030E941B1B181684F481E061E0EE
:101580000E940C0A00D088E191E0EDB7FEB792838B
:1015900081830E94BA1F0F900F906FC0C601B501E2
:1015A00020916A0330916B0340916C0350916D035D
:1015B0000E94D1198823B4F4C801B70120917A039D
:1015C00030917B0340917C0350917D030E941B1B53
:1015D000181644F481E062E00E940C0A00D089EF02
:1015E00090E0D3CF6091940370919503809196031E
:1015F000909197039F7720916E0330916F034091F4
:101600007003509171030E94D119181664F08091F3
:1016100063038F5F809363038B30ECF08AE08093E9
:10162000630383E016C0809163038150809363035A
:1016300018168CF01092630380E090E0A0E0B0E018
:101640008093720390937303A0937403B093750314
:1016500082E08093600380916003833019F40E94DC
:10166000FE070BC0809162038F5F8093620384301A
:1016700020F0109262030E9402081F910F91FF90C8
:10168000EF90DF90CF90BF90AF900895AF92BF9250
:10169000CF92DF92EF92FF920F931F935B016C0149
:1016A000809160038250823008F44BC00E94F10B9D
:1016B0000E94F80B0F2EF0E0EF2EF0E0FF2EF0E08E
:1016C0000F2FF0E01F2FF02DE0928803F092890396
:1016D00000938A0310938B0380E090E0A8E4B3E4C6
:1016E00080939C0390939D03A0939E03B0939F03CC
:1016F000E0929803F092990300939A0310939B034E
:1017000060E070E08AE794E4A80197010E94AD07C9
:10171000A0926A03B0926B03C0926C03D0926D03E7
:101720001092630310926503E0927203F0927303C8
:10173000009374031093750382E0809360030E940A
:1017400000081F910F91FF90EF90DF90CF90BF9016
:10175000AF90089586E2E0E6F3E0DF011D928A95FE
:10176000E9F780E090E0A0E4B0E480936E0390930A
:101770006F03A0937003B093710380E090E0A4EB3B
:10178000B2E48093760390937703A0937803B093A9
:10179000790320E030E046E953E420937A03309364
:1017A0007B0340937C0350937D0380E090E0A0E2B4
:1017B000B2E480937E0390937F03A0938003B09361
:1017C00081032093820330938303409384035093D7
:1017D000850385E0809364030E943E0D0E94C50945
:1017E000089581E08093B00308951092B0030895A6
:1017F0001092B20381E08093B10308958091B00309
:1018000008958091B10308958091B003833029F049
:1018100070E060E099E883EC08C07091B4036091D7
:10182000B5039091B6038091B703272F362F492F28
:10183000582FB901CA0108952F923F924F925F929B
:101840007F928F929F92AF92BF92CF92DF92EF9250
:10185000FF920F931F93DF93CF93CDB7DEB72897F7
:101860000FB6F894DEBF0FBECDBF8091B0038823C2
:1018700009F4ECC08091B103813009F0E7C0809198
:10188000B203082F10E00E94D806000F111F000FAE
:10189000111F04531C4FA0E0B0E0BC01CD010E9419
:1018A000691A26E03FEA4AEF5EE30E941F1B23ED20
:1018B00031EB46ED5EE30E946C19D8016D937D9388
:1018C0008D939C9313978091B2038F5F8093B203A3
:1018D000843108F4BBC08CEC93E064E1AE014F5F4F
:1018E0005F4F0E9483027B018C016093B803709369
:1018F000B9038093BA039093BB032091C003309146
:10190000C1034091C2035091C3030E941B1B1816D0
:1019100024F482E08093B00397C01092B30380E078
:1019200090E0A0E0B0E08093B4039093B503A0935F
:10193000B603B093B70389819A81AB81BC818D8353
:101940009E83AF83B887C801B7012091BC03309153
:10195000BD034091BE035091BF030E941F1B1B019A
:101960002C019CEC892E93E0992E77240F2EF0E029
:10197000EF2EF0E0FF2EF0E00F2FF0E01F2FF02D04
:10198000D401AD90BD90CD90DC90C601B5012D8104
:101990003E814F8158850E946C199F77A201910169
:1019A0000E94D11988234CF4C801B701A601950102
:1019B0000E946D197B018C017394E4E0F0E08E0EBF
:1019C0009F1EFCE18F16F4E09F06D1F67092B303E0
:1019D000672D70E0882777FD8095982F0E946B1AFD
:1019E0009B01AC01C801B7010E94D5197B018C0194
:1019F0006093B4037093B5038093B6039093B703D9
:101A000083E0D82ED092B0031092B103C801B70181
:101A100020E030E048EC53E40E941B1B181634F41D
:101A200082E08093B003D092B10310C0C801B70127
:101A300020E030E040E050EC0E94D119882334F4DB
:101A400082E08093B00384E08093B10328960FB6C0
:101A5000F894DEBF0FBECDBFCF91DF911F910F91E4
:101A6000FF90EF90DF90CF90BF90AF909F908F90BE
:101A70007F905F904F903F902F90089580E7E0EB2C
:101A8000F3E0DF011D928A95E9F783E393E9A8E883
:101A9000B3EC8093B4039093B503A093B603B093D3
:101AA000B7038DEC9CECACE8BFE38093BC03909350
:101AB000BD03A093BE03B093BF0380E090E0A0EA13
:101AC000B1E48093C0039093C103A093C203B09389
:101AD000C30380E090E0A8ECB3E48093C403909348
:101AE000C503A093C603B093C70380E090E0A0E0D5
:101AF000B0EC8093C8039093C903A093CA03B0933A
:101B0000CB03089583E0089521E0FC01268383E060
:101B100008950F931F938C01FC01948185E1989F98
:101B2000C00111248C599E4FFC01A591B4916C9178
:101B300070E080E090E00E94691AF8016783708786
:101B40008187928783E0868380E01F910F910895BB
:101B5000EF92FF920F931F938C01FC01948185E11A
:101B6000989FF0011124EC59FE4FE590F490F80194
:101B700067817085818592850E943D1AF701608397
:101B800083E0F801868380E01F910F91FF90EF9032
:101B900008950F931F938C01FC01948185E1989F18
:101BA000C00111248C599E4FFC01A591B4916D91F7
:101BB0007D918D919C910E94691AF80167837087CD
:101BC0008187928783E0868380E01F910F9108953B
:101BD000EF92FF920F931F938C01FC01948185E19A
:101BE000989FF0011124EC59FE4FE590F490F80114
:101BF00067817085818592850E943D1AF701608317
:101C000071838283938383E0F801868380E01F9150
:101C10000F91FF90EF9008959C01FC01948185E164
:101C2000989FC00111248C599E4FFC01A591B4913D
:101C30008D919D910D90BC91A02DF9018783908786
:101C4000A187B28784E0868380E00895CF93DF93F5
:101C50009C01FC01948185E1989FC00111248C595D
:101C60009E4FFC01C591D491F90187819085A18592
:101C7000B28588839983AA83BB8384E0868380E0CE
:101C8000DF91CF910895FC011682148280E090E0EC
:101C9000A0E0B0E087839087A187B2871386118A7E
:101CA000168A158AA081B181109711F4158209C096
:101CB00016968C91169715969C91873009F49F5F24
:101CC0009583CF01089580E0089580E00895982FCE
:101CD0008091DA02813069F4413019F0423049F4E0
:101CE00005C086E994E00E9452130895892F0E944E
:101CF00063130895EF92FF920F931F93CF93DF9397
:101D00009C017A018B01C6E9D4E090E08E818823A2
:101D100049F00A80DB81C02D9F5F9031B9F7C0E0A8
:101D2000D0E00DC0CE010B96B90145E050E00E9415
:101D3000DC1EEF82F88609871A8784E08E83CE0145
:101D4000DF91CF911F910F91FF90EF900895EF9247
:101D5000FF920F931F93CF93DF939C017A018B0126
:101D6000C6E9D4E090E08E81882349F00A80DB81C7
:101D7000C02D9F5F9031B9F7C0E0D0E011C0CE0117
:101D80000B96B90145E050E00E94DC1EC801B70186
:101D90000E94691A6F83788789879A8783E08E8388
:101DA000CE01DF91CF911F910F91FF90EF90089599
:101DB000EF92FF920F931F93CF93DF93EC01F62ED8
:101DC000E72E8091260490E0A62FB72FFD01019009
:101DD0000020E9F73197EA1BFB0BE80FF91FE1350B
:101DE000F10510F08DE018C08C01095D1B4FC80192
:101DF0000E94D51EEF2DFE2DDF010D900020E9F78A
:101E00001197AE1BBF0B809126048F5F8A0F8093C2
:101E100026041E8B0D8B80E0DF91CF911F910F91D7
:101E2000FF90EF900895EF92FF920F931F93DF932F
:101E3000CF93CDB7DEB7C055D0400FB6F894DEBF14
:101E40000FBECDBF8C017E010894E11CF11CC701BF
:101E500040E550E00E949C1EC801B7010E94D80EC8
:101E6000C05BDF4F0FB6F894DEBF0FBECDBFCF9182
:101E7000DF911F910F91FF90EF900895109226042B
:101E8000E8E6F4E021E0F08FE78BCF018E96928FA9
:101E9000818F138E248F158E12A2779686E0E630FE
:101EA000F80789F7138212821092800410927F043F
:101EB0001092840487E0809385048AE894E06AE3C2
:101EC00072E00E94D51E86E994E00895CF93DF93D7
:101ED000EC018C810E94CC1580935F03882369F408
:101EE0008C8195E1899FC0011124805A9E4FFC018D
:101EF00025913491CE01F9010995DF91CF91089593
:101F0000CF93DF93EC018C810E94CC1580935F030B
:101F1000882369F48C8195E1899FC00111248E5931
:101F20009E4FFC0125913491CE01F9010995DF9175
:101F3000CF910895DF92EF92FF920F931F93CF936B
:101F4000DF93EC018C810E94CC15882309F049C0F5
:101F50000C81CE010E94430E0C8391E1E92EF12CFD
:101F6000EC0EFD1E85E1D82E0D9D800111240B5A2B
:101F70001E4FC701B8010E947D1E8E01055F1F4FD5
:101F80006C816D9DB0011124675A7E4FC8010E947B
:101F90007D1E89898823C1F0EC81ED9DF00111241B
:101FA000E15AFE4FE491E2FF02C0198A0DC0F70129
:101FB00001900020E9F7EE19FF093A96EC0FFD1F9A
:101FC000C801BF010E94D51E8C8195E1899FC00187
:101FD0001124805A9E4FFC0125913491CE01F901C4
:101FE0000995DF91CF911F910F91FF90EF90DF90B6
:101FF0000895EF92FF920F931F93DF93CF9300D03A
:1020000000D000D0CDB7DEB79C017B018E010F5F01
:102010001F4FC801B9010E94D51EC801B7010E9417
:10202000B61E00E025E1E22EF12C56C0402F50E014
:102030004E9D90014F9D300D5E9D300D1124F90194
:10204000E75AFE4FE4918981E81709F044C0F9018D
:10205000E65AFE4FE491EE2321F48A81882309F4A5
:1020600042C08A81E81709F036C04E9DF0014F9DAD
:10207000F00D5E9DF00D1124E55AFE4F94919923C9
:1020800019F48B81882379F18B81981721F54E9D66
:10209000F0014F9DF00D5E9DF00D1124E45AFE4FAE
:1020A0009491992319F48C818823E9F08C819817F5
:1020B00091F44E9DF0014F9DF00D5E9DF00D1124A9
:1020C000E35AFE4F9491992319F48D81882359F096
:1020D0008D81981741F00F5F802F0E94CC158823C7
:1020E00009F0A4CF0FEF802F26960FB6F894DEBF2D
:1020F0000FBECDBFCF91DF911F910F91FF90EF9059
:102100000895EF92FF920F931F93CF93DF939C015B
:102110007B01C6E9D4E090E08E81882339F00A8003
:10212000DB81C02D9F5F9031B9F718C08E01055F2C
:102130001F4FC801B90145E050E00E94DC1ECE01EE
:10214000B7010E94D80E882349F48CE392E0B801CD
:102150000E94F90F8C8385E08E8302C0C0E0D0E03E
:10216000CE01DF91CF911F910F91FF90EF900895D5
:102170000F931F93DF93CF93CDB7DEB7C055D040F9
:102180000FB6F894DEBF0FBECDBF00D000D08E01D9
:102190000F5F1F4FEDB7FEB71283018394838383D4
:1021A0000E9404200F900F900F900F908DE392E00B
:1021B000B8010E948110C05BDF4F0FB6F894DEBFFC
:1021C0000FBECDBFCF91DF911F910F910895BC013C
:1021D0008DE392E00E9481100895EF92FF920F9399
:1021E0001F93DF93CF93CDB7DEB7C055D0400FB666
:1021F000F894DEBF0FBECDBF8C0100D000D07E01B1
:102200000894E11CF11CEDB7FEB7F282E182748301
:1022100063830E9404200F900F900F900F90C801CD
:10222000B7010E948110C05BDF4F0FB6F894DEBF8C
:102230000FBECDBFCF91DF911F910F91FF90EF9017
:102240000895CF93DF93BC0190E0C6E9D4E08E817E
:10225000882339F00A80DB81C02D9F5F9031B9F768
:102260000BC08CE392E00E94F90F8C838F3F21F02A
:10227000CE010E949A0F02C0C0E0D0E0CE01DF91F3
:10228000CF910895BC0181E492E00E94041F9C015B
:1022900080E0232B09F481E00895AF92BF92CF92A2
:1022A000DF92EF92FF920F931F93DF93CF9300D0B3
:1022B00000D0CDB7DEB78C014BE0C42ED12CC80EB8
:1022C000D91E87E0F8018683FF2435E1E32E5E0105
:1022D0000894A11CB11C16C0FE9CB00111246B5ABD
:1022E0007E4FC5010E947D1EC601B5010E94CC1E15
:1022F000009739F4095E1F4FF801F482C8010E946B
:102300009A0FF3948F2D0E94D215882329F70F90EE
:102310000F900F900F90CF91DF911F910F91FF9031
:10232000EF90DF90CF90BF90AF900895FC01848133
:102330000E94DF1508951F93CF93DF93EC018091E6
:10234000DA02882311F488E219C010E00A80DB81E8
:10235000C02D209791F08E81882379F0813021F46F
:10236000CE010E94660F06C0CE010E94800FCE01F2
:102370000E9496111F5F1F3049F780E0DF91CF91D7
:102380001F910895DF92EF92FF920F931F93CF93C7
:10239000DF930E943E0FEC0181E08093DA0280E03F
:1023A00090E0A0E8BFE38F839887A987BA871C8253
:1023B0008E01055F1F4F65E1E62EF12C55E1D52E0C
:1023C0002CC04C81842F90E08E9D90018F9D300D0C
:1023D0009E9D300D1124F901E15AFE4FE491E0FF7A
:1023E00019C0F901EA59FE4F85919591A591B491D3
:1023F0008F839887A987BA874D9DB0011124675AAA
:102400007E4FC8010E947D1ECE010E94800FCE012A
:102410000E9496118C818F5F8C838C810E94D215D3
:10242000882379F6DF91CF911F910F91FF90EF9064
:10243000DF9008952F923F924F925F926F927F921A
:102440008F929F92AF92BF92CF92DF92EF92FF92C4
:102450000F931F93CF93DF938C016B01DC011596D3
:10246000EC90EB018BE78993FF2490E054E4252E58
:1024700052E0352E4EE5442E42E0542E39E5632ECF
:1024800032E0732E23E5822E22E0922E8DE4A82ED8
:1024900082E0B82EF8018681882309F4CBC0992305
:1024A00011F0FCE2F99300D000D000D0EDB7FEB7F8
:1024B0003196ADB7BEB71296DC93CE9311973382A7
:1024C0002282055F1F4F158304830B5010400E942A
:1024D000E01FC80FD91FF80186812DB73EB72A5FCC
:1024E0003F4F0FB6F8943EBF0FBE2DBF813039F479
:1024F000CE016AE472E00E94D51E229692C083301B
:10250000A1F48DB79EB708970FB6F8949EBF0FBE83
:102510008DBFEDB7FEB73196ADB7BEB71296DC935F
:10252000CE931197B382A28216C0843061F52DB785
:102530003EB7285030400FB6F8943EBF0FBE2DBFB7
:10254000EDB7FEB73196ADB7BEB71296DC93CE931A
:10255000119793828282D80117962D913D914D91CA
:102560005C911A9724833583468357830E94E01F2A
:10257000C80FD91FEDB7FEB738960FB6F894FEBF57
:102580000FBEEDBF4EC0853079F400D000D000D032
:10259000EDB7FEB73196ADB7BEB71296DC93CE93CA
:1025A00011977382628210C08630E9F400D000D0A7
:1025B00000D0EDB7FEB73196ADB7BEB71296DC933B
:1025C000CE93119753824282D80155968D919C915A
:1025D0005697958384830E94E01FC80FD91FEDB7DB
:1025E000FEB73696CACF8230E1F4D80117966D91C6
:1025F0007D918D919C911A9720E030E040E050E071
:102600000E94D119882339F4CE0163E672E00E945A
:10261000D51E259606C0CE0169E672E00E94D51E41
:102620002496F8018681873011F091E003C0FBE722
:10263000F99390E0D80112960D911C911397011512
:10264000110519F48F2D9DE70DC0F80185818F15B7
:102650001CF4FDE7F99391E0D8011596FC901ACF90
:1026600099938150E816E4F3CE016EE672E00E9481
:10267000D51E9E012E5F3F4F2C193D09C901DF91E8
:10268000CF911F910F91FF90EF90DF90CF90BF906F
:10269000AF909F908F907F906F905F904F903F9002
:1026A0002F9008950F931F930FED12E0B8010E9431
:1026B0001A1260917E0670917F06C8010E947C1FED
:1026C0001F910F9108958FE794E00E94521308958F
:1026D0002F923F924F925F926F927F928F929F9232
:1026E000AF92BF92CF92DF92EF92FF920F931F9320
:1026F000DF93CF93CDB7DEB729970FB6F894DEBF3F
:102700000FBECDBF7C018091710290917202A091A9
:102710007302B09174028E839F83A887B987F701F3
:1027200001900020E9F73197EE19FF09E138F10532
:1027300010F01BE225C087016701BB241AC0BB2033
:1027400069F4883219F4BB24B39404C0813270F068
:102750008F3761F090E00E94751E05C0BB2489325E
:1027600011F0BB24B394F80181938F010894C11C2C
:10277000D11CF6018081882311F7F801108210E046
:1027800010935F03112309F03EC106E914E0E0E174
:10279000CE2E0F2EF0E06F2EF0E07F2EF0E88F2E81
:1027A000FFE39F2EF02D0F2EF0E02F2EF0E03F2EB6
:1027B000F0E04F2EF0E05F2EF02DCA9411F411E3FB
:1027C00022C1DE011396E5E7F2E083E001900D926D
:1027D0008150E1F7C8010E94430EC70162E270E038
:1027E0000E94C11E009709F42BC17C010894E11CD2
:1027F000F11CC70162E270E00E94C11EFC0100975B
:1028000009F41EC19A83898310827BE0A72EB12C24
:10281000A00EB11EC501B70145E050E00E94DC1ECC
:1028200089819A8101969A8389836AE370E00E9484
:10283000C11EFC01009709F403C17C010894E11C4E
:10284000F11C21812E3631F0223231F4F7018181E1
:10285000823211F481E04FC0822F90E0C0970A9736
:1028600010F02D32B1F4C701BE016F5F7F4F0E949F
:10287000351CF801678370878187928789819A81E7
:102880008E159F0511F41AE2BEC084E0F80186831C
:1028900054C02B3739F487E0F80186830894E11C93
:1028A000F11CCBC0223221F50894E11CF11C85E01B
:1028B000F8018683C70162E270E00E94C11EFC013C
:1028C000009709F4BDC09A8389831082C801B701BB
:1028D0000E94D80ED82E80935F03882309F048C049
:1028E000E980FA800894E11CF11CFA82E98225C093
:1028F000243741F482E0F8018683678270868186FE
:1029000092861BC0263641F482E0F8018683278236
:1029100030864186528611C02B3509F091C086E081
:10292000F8018683C801B7010E94D80ED82E809383
:102930005F038823E9F41FE266C0C701BE016D5F33
:102940007F4F0E94F61EFC017C01009709F478C0BD
:1029500080818D3719F40894E11CF11CF701808106
:102960008C3209F46AC00894E11CF11CDD2405C016
:10297000F2E0FD1510F41D2D46C08E81882349F02C
:10298000C8014196BE016A5F7F4F43E050E00E945C
:10299000DC1EC8014196B5010E94F90FF80184833D
:1029A0008F3F11F418E22FC00E94D815882361F0E0
:1029B000C5010E944211882339F0CE010696B50167
:1029C00043E050E00E94DC1EF80102811381DD200B
:1029D00009F0F3CE80919C04813041F486E994E0C3
:1029E0000E94660F182F80935F030DC086E994E064
:1029F0000E94800F182F80935F03882321F486E9BB
:102A000094E00E949611812F29960FB6F894DEBFAC
:102A10000FBECDBFCF91DF911F910F91FF90EF902F
:102A2000DF90CF90BF90AF909F908F907F906F90EE
:102A30005F904F903F902F90089562E0D62E9DCFEB
:102A400010E3E1CF0F931F938C010E943E0FC8014A
:102A50000E94681360E042E00E94670E1F910F9190
:102A600008958093780288E792E008958FEF9FEFB2
:102A700008950F931F93CF93DF93EC01E989FA89AF
:102A800084859585892B19F429E030E016C08E01E4
:102A90000D5E1F4FCB01BA01A8010E94231F892B95
:102AA00019F020E030E009C0E989FA89158614861A
:102AB000C8010E941E1F28E030E0C901DF91CF91BC
:102AC0001F910F9108951F93CF93DF93FC01C4854D
:102AD000D5858EA1882319F02EEF3FEF30C0E9890C
:102AE000FA898485958520813181820F931FFC01AD
:102AF0001491112311F481E08EA3E989FA89808170
:102B00009181A281B3810196A11DB11D8083918322
:102B1000A283B3838BA1882329F0112311F01D30E8
:102B200009F41AE08AA1882341F060917C06709133
:102B30007D06812F90E00E94501F212F30E0C901B7
:102B4000DF91CF911F910895EF92FF920F931F9302
:102B50007B01E82FF0E0EE0FFF1FE05EFB4F0081EE
:102B60001181C801BA010E945604D8015196ED9115
:102B7000FC915297F586E48680E090E4A0E0B0E016
:102B800080879187A287B3870D5E1F4FC8011F9171
:102B90000F91FF90EF90089590E08A3108F491E052
:102BA000892F089590E0873108F491E0892F0895E6
:102BB00090E08651843008F491E0892F089590E0E8
:102BC000873108F491E0892F0895A1E1B0E0EBEEA0
:102BD000F5E10C94FE1B3C017F876E876A01FC01C6
:102BE00017821682838181FD03C06FEF7FEF6FC371
:102BF0009E012F5F3F4F398B288BF3012381EE8598
:102C0000FF8523FD859123FF8191FF87EE87882330
:102C100009F45AC3853251F4EE85FF8523FD859171
:102C200023FF8191FF87EE87853229F490E0B3017D
:102C30000E94501FE2CF982F10E088249924103270
:102C4000B0F49B3269F09C3228F4903251F0933208
:102C500071F40BC09D3239F0903349F4116028C0F3
:102C60001260146025C0186023C0106121C017FDD8
:102C70002AC0892F80538A3078F416FF06C0FAE004
:102C80009F9E902C1124980E13C03AE0839E802CB6
:102C90001124880E10620CC09E3221F416FD14C35C
:102CA000106406C09C3611F4106802C0983659F4BE
:102CB000EE85FF8523FD959123FF9191FF87EE8798
:102CC000992309F0BCCF892F8554833020F4812FBC
:102CD0008061905E07C0892F8556833008F09FC1C0
:102CE000812F8F7E86FD02C076E0972E6FE3F62E51
:102CF000F822953619F4F0E4FF2A07C0963619F445
:102D000020E8F22A02C091109A94F7FE0AC03BE331
:102D1000391518F45CE3B52E02C0B92CB39427E042
:102D200009C047E0491520F4BB2447E0942EF7CFB3
:102D3000292DBB24C60104969D878C87F6016081EE
:102D4000718182819381AE014F5F5F4F0B2D0E9495
:102D5000951D6C010981202E332400FF04C003FD62
:102D600002C01DE209C0F1FE02C01BE205C0F2FC78
:102D700002C010E001C010E2C1018C709070892B7C
:102D8000B9F1112311F483E001C084E0881510F03B
:102D900088240AC0881AF3FC07C080E290E0B301DF
:102DA0000E94501F8A94C9F7112329F0812F90E0C7
:102DB000B3010E94501F23FE03C008E610E00EC0BE
:102DC0000CE610E00BC0E114F10409F0805290E031
:102DD000B3010E94501F0F5F1F4F05C0EF2CFF244F
:102DE000F0E1EF22FF24F8018491882361F714C1F8
:102DF000F7FE12C0BC0C24FE04C08A81813309F4A2
:102E0000BA941B141CF0BB24B3942DC0F8E0FB153E
:102E100050F538E0B32E27C0F6FC25C0892D90E090
:102E20008C159D054CF02CEFC2162FEFD20624F026
:102E300030E8F32A01C09A94992049F0E2E0F0E0EA
:102E4000EC0FFD1FE90DF11D80818033A1F3F7FE2A
:102E50000AC0B92CB394892D90E0C816D90614F095
:102E6000992401C09C18F7FC03C025E030E009C09C
:102E70001C141D041CF021E030E003C096012F5FFC
:102E80003F4F112311F02F5F3F4F992029F0892DDB
:102E900090E00196280F391F882D90E028173907F8
:102EA00014F0882401C0821A4F2C5524C201897065
:102EB0009070892B39F008C080E290E0B3010E9445
:102EC000501F8A948820C1F7112329F0812F90E0A8
:102ED000B3010E94501F43FE07C008C080E390E08A
:102EE000B3010E94501F8A948820C1F7F7FE46C0A4
:102EF0008601D7FE02C000E010E076010894E11CD4
:102F0000F11CE01AF10A41E050E04C0F5D1FE40EA5
:102F1000F51E26014B185108892D90E0AA24BB24E8
:102F2000A81AB90A5FEF0F3F150729F48EE290E067
:102F3000B3010E94501FC016D10634F0401651064E
:102F40001CF4F701808101C080E301501040089417
:102F5000E11CF11C0A151B052CF090E0B3010E9446
:102F6000501FE0CF0C151D0539F49A81963318F4E3
:102F7000953311F424FE81E390E04BC08A818133C4
:102F800009F00F7E90E0B3010E94501F9920A1F03C
:102F90008EE290E0B3010E94501F12E0E1E0F0E009
:102FA000EC0FFD1FE10FF11D1F5F808190E0B30169
:102FB0000E94501F9A9491F744FC03C085E690E06C
:102FC00002C085E490E0B3010E94501FD7FC05C009
:102FD000C114D10441F404FF06C0D094C194D108B7
:102FE000D3948DE201C08BE290E0B3010E94501FA8
:102FF00080E305C08F5F26EF3FEFC20ED31E3AE09D
:10300000C316D104BCF790E0B3010E94501FC60163
:10301000C096B3010E94501FCC84DD8452C1933608
:1030200031F0933799F0933509F059C023C0F60178
:10303000808189835E010894A11CB11C22E030E0EC
:10304000C20ED31E21E0E22EF12C12C0F601A080A8
:10305000B18016FD03C06FEF7FEF02C0692D70E0F5
:1030600022E030E0C20ED31EC5010E94EB1E7C019F
:103070001F7713C0F601A080B18016FD03C06FEF6B
:103080007FEF02C0692D70E022E030E0C20ED31E57
:10309000C5010E94AB1E7C01106813FF07C01BC056
:1030A00080E290E0B3010E94501F8A94882D90E046
:1030B000E816F906A8F30FC0F50117FD859117FF73
:1030C00081915F0190E0B3010E94501F81108A94AA
:1030D0000894E108F108E114F10471F7F2C09436A4
:1030E00011F0993689F517FF08C0F601208131816A
:1030F0004281538184E090E00AC0F6018081918191
:103100009C01442737FD4095542F82E090E0C80E83
:10311000D91E9FE6F92EF12257FF09C05095409520
:10312000309521953F4F4F4F5F4F90E8F92ACA01E4
:10313000B901AE014F5F5F4F2AE030E00E942820C6
:10314000E82EE889EE1A41C0953721F41F7E2AE067
:1031500030E01CC0197F9F3661F0903720F498351D
:1031600009F0B2C00FC0903739F0983709F0ACC001
:1031700004C028E030E00AC0106114FD146020E1B2
:1031800030E004C014FD166020E132E017FF08C0F3
:10319000F601608171818281938144E050E008C032
:1031A000F60180819181BC0180E090E042E050E036
:1031B000C40ED51EAE014F5F5F4F0E942820E82E3F
:1031C0005889E51A8FE7F82EF122F6FE0BC08EEF34
:1031D000F822E91438F4F4FE07C0F2FC05C09FEEB3
:1031E000F92202C01E2D01C0192DF4FE0DC0FE01F2
:1031F000EE0DF11D8081803319F4E9EEFE2208C046
:103200001F5FF2FE05C003C08F2D867809F01F5F97
:103210000F2DF3FC14C0F0FE0FC0181510F09E2CFB
:103220000BC09E2C980C911A182D06C080E290E0DD
:10323000B3010E94501F1F5F1815C0F304C018157A
:1032400010F4811A01C0882404FF0FC080E390E0CD
:10325000B3010E94501F02FF1DC001FD03C088E79B
:1032600090E00EC088E590E00BC0802F867891F04A
:1032700001FF02C08BE201C080E2F7FC8DE290E02A
:10328000B3010E94501F06C080E390E0B3010E948A
:10329000501F9A94E914C0F3EA94E1E0F0E0EC0FD7
:1032A000FD1FEE0DF11D808190E0B3010E94501FC3
:1032B000EE2091F706C080E290E0B3010E94501F1B
:1032C0008A948820C1F799CCF30166817781CB017C
:1032D0006196E2E10C941A1C5058BB27AA270ED025
:1032E00070C161D130F066D120F031F49F3F11F40C
:1032F0001EF456C10EF4E095E7FB4CC1E92F72D1E4
:1033000080F3BA17620773078407950718F071F402
:103310009EF58AC10EF4E0950B2EBA2FA02D0B015D
:10332000B90190010C01CA01A0011124FF27591B0A
:1033300099F0593F50F4503E68F11A16F040A22F10
:10334000232F342F4427585FF3CF46953795279581
:10335000A795F0405395C9F77EF41F16BA0B620B80
:10336000730B840BBAF09150A1F0FF0FBB1F661FC7
:10337000771F881FC2F70EC0BA0F621F731F841F0A
:1033800048F4879577956795B795F7959E3F08F030
:10339000B3CF9395880F08F09927EE0F97958795EF
:1033A0000895D4D008F481E008950CD00AC102D168
:1033B00040F0F9D030F021F45F3F19F0EBC051112B
:1033C00034C1EEC00FD198F39923C9F35523B1F35B
:1033D000951B550BBB27AA2762177307840738F084
:1033E0009F5F5F4F220F331F441FAA1FA9F333D0E3
:1033F0000E2E3AF0E0E830D091505040E695001C97
:10340000CAF729D0FE2F27D0660F771F881FBB1F52
:10341000261737074807AB07B0E809F0BB0B802D2C
:10342000BF01FF2793585F4F2AF09E3F510568F078
:10343000B1C0FBC05F3FECF3983EDCF38695779517
:103440006795B795F7959F5FC9F7880F911D96957A
:10345000879597F90895E1E0660F771F881FBB1FD6
:10346000621773078407BA0720F0621B730B840B83
:10347000BA0BEE1F88F7E0950895BCD088F09F57EF
:1034800090F0B92F9927B751A0F0D1F0660F771FB0
:10349000881F991F1AF0BA95C9F712C0B13081F090
:1034A000C3D0B1E00895C0C0672F782F8827B85FD8
:1034B00039F0B93FCCF3869577956795B395D9F7F1
:1034C0003EF490958095709561957F4F8F4F9F4FFB
:1034D0000895E89409C097FB3EF490958095709507
:1034E00061957F4F8F4F9F4F9923A9F0F92F96E950
:1034F000BB279395F695879577956795B795F111C5
:10350000F8CFFAF4BB0F11F460FF1BC06F5F7F4F61
:103510008F4F9F4F16C0882311F096E911C0772373
:1035200021F09EE8872F762F05C0662371F096E87C
:10353000862F70E060E02AF09A95660F771F881F4B
:10354000DAF7880F9695879597F90895990F0008EF
:10355000550FAA0BE0E8FEEF16161706E807F90765
:10356000C0F012161306E407F50798F0621B730B00
:10357000840B950B39F40A2661F0232B242B252B81
:1035800021F408950A2609F4A140A6958FEF811D24
:10359000811D089597F99F6780E870E060E00895C5
:1035A0009FEF80EC089500240A941616170618065B
:1035B0000906089500240A94121613061406050637
:1035C0000895092E0394000C11F4882352F0BB0FC8
:1035D00040F4BF2B11F460FF04C06F5F7F4F8F4F2B
:1035E0009F4F089557FD9058440F551F59F05F3F66
:1035F00071F04795880F97FB991F61F09F3F79F015
:1036000087950895121613061406551FF2CF469596
:10361000F1DF08C0161617061806991FF1CF869518
:103620007105610508940895E894BB2766277727FC
:10363000CB0197F908958ADF08F48FEF08950BD036
:10364000C0CFB1DF28F0B6DF18F0952309F0A2CF84
:10365000A7CF1124EACFC6DFA0F3959FD1F3950F32
:1036600050E0551F629FF001729FBB27F00DB11D06
:10367000639FAA27F00DB11DAA1F649F6627B00D96
:10368000A11D661F829F2227B00DA11D621F739F7F
:10369000B00DA11D621F839FA00D611D221F749F8D
:1036A0003327A00D611D231F849F600D211D822FD4
:1036B000762F6A2F11249F5750408AF0E1F088231B
:1036C0004AF0EE0FFF1FBB1F661F771F881F915028
:1036D0005040A9F79E3F510570F05CCFA6CF5F3FE9
:1036E000ECF3983EDCF3869577956795B795F7955B
:1036F000E7959F5FC1F7FE2B880F911D96958795E3
:1037000097F9089511F40EF44BCF41C073DFD0F355
:103710009923D9F3CEF39F57550B87FF46D000244A
:10372000A0E640EA900180585695979528F4805C71
:10373000660F771F881F20F026173707480730F4D9
:10374000621B730B840B202931294A2BA6951794F1
:103750000794202531254A2758F7660F771F881FC1
:1037600020F026173707480730F4620B730B840BE1
:10377000200D311D411DA09581F7B901842F91586D
:10378000880F9695879508959B01AC0158CF9F3F70
:1037900031F0915020F4879577956795B795880F0C
:1037A000911D9695879597F9089591505040660F11
:1037B000771F881FD2F70895A1E21A2EAA1BBB1B00
:1037C000FD010DC0AA1FBB1FEE1FFF1FA217B307ED
:1037D000E407F50720F0A21BB30BE40BF50B661F03
:1037E000771F881F991F1A9469F7609570958095C7
:1037F00090959B01AC01BD01CF0108952F923F929E
:103800004F925F926F927F928F929F92AF92BF92F0
:10381000CF92DF92EF92FF920F931F93CF93DF939C
:10382000CDB7DEB7CA1BDB0B0FB6F894DEBF0FBEF9
:10383000CDBF09942A88398848885F846E847D8446
:103840008C849B84AA84B984C884DF80EE80FD8048
:103850000C811B81AA81B981CE0FD11D0FB6F894BE
:10386000DEBF0FBECDBFED010895A0E0B0E0EBE3F9
:10387000FCE10C94041CEC015B016115710519F06D
:10388000FB0191838083F9908F2D90E00E946D1E43
:10389000892BC9F7FDE2FF1621F4F990EE24E39499
:1038A00005C02BE2F21609F4F990EE248E010150C6
:1038B0001040C80167E773E043E050E00E94841EB7
:1038C000892B01F58E010E5F1F4FC8016AE773E077
:1038D00045E050E00E94841E892B19F48E01095F97
:1038E0001F4FA114B10419F0F50111830083E0FC0E
:1038F00004C070E090E080E814C070E090E080E8E0
:103900006FEF08C1C8016FE773E043E050E00E9429
:10391000841E892B69F4A114B10429F470E090E0AD
:1039200080EC6FE7F7C02296F501D183C083F6CF14
:103930008824992440E050E060E070E0EF2DE053EF
:10394000EA30A0F5F2E0EF2A8E2D90E09C0128707D
:103950003070E2FE06C0232B79F50894811C911C7F
:103960002BC0232B19F0089481089108DB01CA01B0
:1039700012E0880F991FAA1FBB1F1A95D1F7480F95
:10398000591F6A1F7B1F440F551F661F771F4E0F5D
:10399000511D611D711D483929E9520729E9620746
:1039A00029E1720748F084E0E82A06C0EE3F31F4CE
:1039B000E3FC39C098E0E92AF990C0CFE53311F073
:1039C000E53189F529912D3219F4E0E1EE2A05C09F
:1039D0002B3219F081E090E003C0299182E090E061
:1039E000E22FE053EA3018F0C81BD90B1CC020E0CE
:1039F00030E0FCE020383F075CF4C901880F991FD4
:103A0000880F991F280F391F220F331F2E0F311DCA
:103A1000E991E053EA3068F3E4FE03C03095219564
:103A20003F4F820E931ECE2CDD24E1FE07C0A11471
:103A3000B10421F02197F501D183C083CB01BA01F4
:103A40000E94691A7B018C01F3E0CF22DD2423E080
:103A5000C216D10421F417FB109517F910955701E0
:103A60006801C801B70120E030E040E050E00E946A
:103A7000D119882309F44AC097FE0DC026E9E22E29
:103A800023E0F22E9094819491089394C0E2D0E0C8
:103A900000E010E012C09EEAE92E93E0F92EF6CF86
:103AA000F7012591359145915491C601B5010E94C8
:103AB0001F1B5B016C018C1A9D0A8C169D0684F7F6
:103AC000D595C7950F5F1F4F0630110529F08CEF74
:103AD0009FEFE80EF91EF1CFC501D6017C018D01E3
:103AE0008C2D880F8D2D881F8F3F51F0C601B50199
:103AF00020E030E040E050E00E94D119882331F40A
:103B000082E290E090938106809380067E2D9F2D27
:103B1000802F612F272F392F482F562FB901CA0127
:103B2000CDB7DEB7ECE00C94201C283008F027E07D
:103B30003327DA01990F311D87FD916000966105E9
:103B4000710539F432602E5F3D9330E32A95E1F739
:103B500008959F3F30F080387105610509F03C5FA2
:103B60003C5F3D93913008F08068911DDF93CF93C7
:103B70001F930F93FF92EF92192F987F9695E92F3D
:103B800096959695E90FFF27E45FFB4F992733271A
:103B9000EE24FF24A701E70105900894079428F478
:103BA000360FE71EF81E491F511D660F771F881F2D
:103BB000991F0694A1F70590079428F4E70EF81EC4
:103BC000491F561FC11D770F881F991F661F069436
:103BD000A1F70590079428F4F80E491F561FC71F38
:103BE000D11D880F991F661F771F0694A1F70590B6
:103BF000079420F4490F561FC71FD81F990F661F3F
:103C0000771F881F0694A9F784911095177041F0CB
:103C1000D695C79557954795F794E7941A95C1F7A8
:103C2000E2EBF3E0689415901591359165919591CB
:103C300005907FE27395E118F10A430B560BC90B0F
:103C4000D009C0F7E10CF11E431F561FC91FD01D3C
:103C50007EF4703311F48A95E6CFE894015030F089
:103C6000080F0AF40027021708F4202F2395022FCB
:103C70007A3328F079E37D932A95E9F710C07D9394
:103C80002A9589F606949795679537951795179411
:103C9000E118F10A430B560BC90BD00998F0239594
:103CA0007E9173957A3308F070E37C932013B8F714
:103CB0007E9170617D9330F0839571E37D9370E325
:103CC0002A95E1F71124EF90FF900F911F91CF916A
:103CD000DF91992787FD90950895911117C2803241
:103CE00019F089508550D0F70895911108958154A5
:103CF0008A5108F4805E855A0895FB01DC01059025
:103D00000D920020E1F70895FB01DC014150504085
:103D100088F08D9181341CF08B350CF4805E6591B8
:103D200061341CF06B350CF4605E861B611171F31D
:103D3000990B0895881BFCCFFB01DC0141505040DA
:103D400048F005900D920020C9F701C01D92415026
:103D50005040E0F70895FC0105906150704001105B
:103D6000D8F7809590958E0F9F1F0895FB01DC0179
:103D70000D900020E9F7119701900D920020E1F7D6
:103D80000895FC018191861721F08823D9F799279E
:103D900008953197CF010895FB01DC018D910190C9
:103DA00080190110D9F3990B0895FB01DC010190F2
:103DB0000D920020E1F70895FB01DC0141505040D5
:103DC00048F001900D920020C9F701C01D924150AA
:103DD0005040E0F70895FC016150704001900110DF
:103DE000D8F7809590958E0F9F1F0895DC01992735
:103DF0008D91882341F0FB01019008160110E1F735
:103E0000B9F71197CD010895FB0151915523A9F000
:103E1000BF01DC014D9145174111E1F759F4CD0186
:103E20000190002049F04D9140154111C9F3FB016B
:103E30004111EFCF81E090E001970895FC0183816B
:103E40008F7C83830895A0E0B0E0E9E2FFE10C9469
:103E5000081C7C016A01FA01838180FF19C01616D3
:103E60001706B4F4EB01219787010DC0C6010E942B
:103E70008920FFEF8F3F9F0759F0F80181938F0151
:103E80000A9719F02197209789F7F801108202C04C
:103E9000EE24FF24C701CDB7DEB7E8E00C94241C64
:103EA0000F931F93CF93DF938C01EB018B8181FFE5
:103EB0001BC082FF0DC02E813F818C819D81281700
:103EC000390764F4E881F9810193F983E88306C036
:103ED000E885F985802F0995892B31F48E819F81A2
:103EE00001969F838E8302C00FEF1FEFC801DF9101
:103EF000CF911F910F910895EF92FF920F931F930F
:103F0000CF93DF937C018B01DB0113968C9181FDB4
:103F100003C0CFEFDFEF13C0C0E0D0E00BC0D8018B
:103F20001896ED91FC911997B8010995892B11F01C
:103F3000CFEFDFEFF70181917F01882381F7CE0179
:103F4000CDB7DEB7E6E00C94261CA0E0B0E0EBEACB
:103F5000FFE10C940E1CFE013596619171918091E8
:103F60007C0690917D06AF010E94E5152096E2E067
:103F70000C942A1CA0E0B0E0E0ECFFE10C940E1CD5
:103F8000FE01359661917191A0917C06B0917D06FC
:103F900013968C911397886013968C9380917C066E
:103FA00090917D06AF010E94E515E0917C06F091AD
:103FB0007D062381277F23832096E2E00C942A1C30
:103FC000AEE0B0E0E6EEFFE10C940C1C0D891E891A
:103FD00086E08C831A8309838FEF9FE79E838D830E
:103FE0009E01275E3F4FCE0101966F89788DA90112
:103FF0000E94E5152F813885020F131FF8011082EA
:104000002E96E4E00C94281CAEE0B0E0EAE0F0E28A
:104010000C940C1C0D891E898EE08C831A830983F5
:104020008FEF9FE79E838D839E01275E3F4FCE01DA
:1040300001966F89788DA9010E94E5152F81388539
:10404000020F131FF80110822E96E4E00C94281C36
:10405000FA01AA27283051F1203181F1E8946F93B9
:104060006E7F6E5F7F4F8F4F9F4FAF4FB1E03ED05F
:10407000B4E03CD0670F781F891F9A1FA11D680FFD
:10408000791F8A1F911DA11D6A0F711D811D911D30
:10409000A11D20D009F468943F912AE0269F1124A5
:1040A0003019305D3193DEF6CF010895462F477009
:1040B000405D4193B3E00FD0C9F7F6CF462F4F7064
:1040C000405D4A3318F0495D31FD4052419302D0C2
:1040D000A9F7EACFB4E0A695979587957795679568
:1040E000BA95C9F700976105710508959B01AC0168
:1040F0000A2E06945795479537952795BA95C9F78F
:10410000620F731F841F951FA01D0895992788278C
:104110000895CF93DF93EC014B8140FF1AC046FF17
:104120000AC04F7B4B838E819F8101969F838E8334
:104130008A81282F2BC042FF13C0E881F98180813A
:10414000282F332727FD30952115310529F44062AA
:104150004B832FEF3FEF1BC03196F983E88311C0EB
:10416000EA85FB85CE0109959C0197FF0AC09B81DA
:104170002F5F3F4F11F080E201C080E1892B8B83DC
:10418000E8CF8E819F8101969F838E8330E0C901A5
:0A419000DF91CF910895F894FFCF5E
:10419A007B226676223A22227D0A0025730030317C
:1041AA003233343536371F010100000000000000A9
:1041BA0000000000000000000000000000000000F5
:1041CA000000000000000000001F010100000000C4
:1041DA0000000000000000000000000000000000D5
:1041EA0000000000000000000000000000900640EF
:1041FA0004BF04EB057B063F0416013901000000E9
:10420A0000000000000000000000000000000000A4
:10421A0000000000000000003F0101000000000053
:10422A000000000000000000000000000000000084
:10423A000000000000000000000000000000000074
:10424A000000000000000000000000000000000064
:10425A0000000000000000000000003F0101000013
:10426A000000000000000000000000000000000044
:10427A000000000000000000000000000000000034
:10428A000000000000000000000000000000000024
:10429A000000000000000000000000000000017C97
:1042AA00084004BF0405058B043F048801CB0100C4
:1042BA0000000000000000000000000000000000F4
:1042CA00000000000000000000007200006D73672B
:1042DA0000737200222573223A0022220025312E11
:1042EA0030660025302E33660022257322005B25B6
:1042FA00735D0066616C73650074727565007D0A92
:10430A0000000000007D2C0002A41540043915634A
:10431A001536153F04000000006C0600000000007E
:10432A000000000000000000000000000000000083
:04433A00000000007F
:00000001FF
